:020000040800F2
:10000000E04700209901000879540008B347000830
:1000100075540008491A0008E75D00080000000058
:1000200000000000000000000000000001010008C6
:10003000D51A0008000000004501000835590008E5
:10004000B3010008B3010008B3010008B3010008C0
:10005000B3010008B3010008B3010008B3010008B0
:10006000B3010008B3010008B3010008C51A000875
:10007000B3010008B3010008B3010008B301000890
:10008000B3010008B3010008B3010008B301000880
:10009000B3010008B3010008B3010008B301000870
:1000A000B3010008B3010008B3010008B301000860
:1000B000B3010008B3010008B3010008B301000850
:1000C000B3010008B3010008B3010008B301000840
:1000D000B3010008B3010008B3010008B301000830
:1000E000B3010008B3010008B3010008DFF80CD029
:1000F00000F0C8FC00480047356D0008E0470020CC
:10010000224B19680868B0E8F00F80F30988BFF344
:100110006F8F4FF0000080F311884EF00D0E704786
:100120000000000006480068006880F3088862B696
:1001300061B6BFF34F8FBFF36F8F00DF00BF00BF0B
:1001400008ED00E0EFF30980BFF36F8F0F4B1A68E3
:1001500020E9F00F106008B54FF0500080F31188CF
:10016000BFF34F8FBFF36F8F07F056FA4FF00000C9
:1001700080F31188BDE8084019680868B0E8F00FFE
:1001800080F30988BFF36F8F704700BF1000002015
:10019000EFF3058070470000064880470648004797
:1001A000FEE7FEE7FEE7FEE7FEE7FEE7FEE7FEE727
:1001B000FEE7FEE7CD590008ED000008202A04DB29
:1001C000203A21FA02F00021704721FA02F3D040D0
:1001D000C2F120029140084319467047D2B201E0B3
:1001E00000F8012B491EFBD270470022F6E710B53C
:1001F00013460A4604461946FFF7F0FF204610BD95
:10020000F0B480EA0102D40F4200B2EB410F02D2F7
:100210000246084611464A0042D0C30DDDB2C1F382
:10022000C752AD1A202D35DAC1F3160141F4000290
:1002300004B15242C5F1200602FA06F12A411044E7
:10024000B3EBD05F23D0C4B1012DA0EBC35009DCC8
:10025000F0BC4FF0004202EAC352DBB200F50000EE
:1002600000F0CFBA400000F1807000EBC350A0F165
:10027000807040EAD170490009E0490841EAC07144
:10028000A0EBC35000F50000400800EBC350F0BCE9
:1002900000F0AEBA6142012202EB4101001BF6E719
:1002A000F0BC704781F00041AAE780F00040A7E76A
:1002B00080EA010210B502F00043400022D04A005B
:1002C0001FD0010E01EB1261C0F35600C2F35602BB
:1002D00040F4000042F40002A0FB022000047F3939
:1002E000140400D0401C50EA124001D44000491EC2
:1002F000C2B20C0604EBD010401C4008802A02D089
:1003000003E0002010BD20F00100002900DA0020E9
:10031000184310BD30B480EA010202F0004530F00D
:10032000004221F0004013D090B1C30DD40DC2F3B0
:100330001601C0F31600E41A41F4000140F4000273
:100340007D34914201D3641C00E04900002C02DAA4
:1003500030BC002070474FF400000023914201D3CD
:10036000891A034340084FEA4101F7D151B1914244
:1003700002D14FF0004105E002D24FF0010101E04F
:100380006FF0010103EBC450284430BC00F030BAD8
:100390002DE9FE4F804681EA0300C00F0C46009015
:1003A00021F0004123F00045B8EB0200A94105D23D
:1003B0004046214690461C460B46024623F000402C
:1003C000104347D0270DC7F30A00C3F30A51029028
:1003D000401A019040286BDAC3F3130040F4801BED
:1003E0000098924620B10023D2EB030A63EB0B0B7B
:1003F00001985946C0F14002504600F0D8F906462F
:100400000D4650465946019A00F0E0F910EB0800FD
:100410006141002487EA115284EAE7731A4340D00D
:10042000009A62B3019A012A4FEA075215DC001BB9
:1004300061EB02014FF0004202EA0752CDE90042AF
:10044000001C41F5801132462B4600F017FA03B02C
:10045000BDE8F08F40462146F9E7001B61EB020141
:10046000001C41F5801300185B412018A2F500170D
:1004700047EB030140EAD570B6196D4111E06D08F4
:100480004FEA360645EAC0754FEA0752001B61EB9A
:100490000201001C41F5801149084FEA30000019A3
:1004A000514132462B4603B0BDE8F04F00F0D7B9BA
:1004B0000098012240000023D0EB020263EBE073BE
:1004C000009821464FEAE074B8EB000061EB0401AC
:1004D000E9E783F000435BE781F0004158E72DE94D
:1004E000FE4F81EA030404F0004421F0004100942F
:1004F0004FF0000B23F0004350EA01045ED052EAB3
:1005000003045BD0C3F30A54C1F30A552C44A4F28C
:10051000F3340194A0FB0254C1F3130141F48011A0
:10052000C3F3130343F4801301FB024400FB034EA7
:10053000840A970A44EA815447EA8357A4FB076870
:1005400002958D0A05FB07854FEA932C04FB0C549A
:100550002705029D4FEA065847EA1637B5EB08050E
:100560006EEB070C870E920E47EA811742EA831260
:10057000A7FB0201B6EB0B0164EB00042B0D43EA71
:100580000C335E1844EB1C50DA465146E7FB02017F
:10059000C5F313044FEA0B3343EA14534FEA043212
:1005A000019C43EA0603A4F10C040294009CCDE9EB
:1005B00000B400F063F903B0BDE8F08F00200146FD
:1005C000F9E7C10F80EAE0700844CA0796230021CA
:1005D00000F017B996230022114600F012B90EB5AB
:1005E000C10F80EAE0700844CA07002140F233439B
:1005F0008DE80E000A460B4600F040F903B000BD3E
:1006000000F0004220F00040C10DC0F3160040F49D
:1006100000007F2901DA00207047962903DCC1F130
:100620009601C84001E096398840002AF4D0404243
:10063000704720F00040C10DC0F3160040F40000E8
:100640007F2901DA00207047962903DCC1F1960169
:10065000C840704796398840704770B5C1F30A5258
:1006600001F000450024C1F3130140F2FF3341F4CF
:1006700080119A4201DA002070BD40F233439A4261
:10068000A2F2334203DC5242FFF798FD00E09040B3
:100690002C43F1D0404270BD00F0004230F00040E9
:1006A0000AD0C10D01F56071C0F3160042EA015194
:1006B000C20840071143704700200146704701F00F
:1006C000004330B421F0004150EA010206D00A0D87
:1006D000A2F56072C1F31301002A02DC30BC0020D5
:1006E0007047440F44EAC104C100E01830BC00EB7D
:1006F000C25000F07DB80000002801DBC0F10040CE
:10070000002901DBC1F1004181427047002801DB73
:10071000C0F10040002901DBC1F10041884270476F
:1007200030B50B46014600202022012409E021FAC1
:1007300002F59D4205D303FA02F5491B04FA02F5BE
:100740002844151EA2F10102F1DC30BD2DE9F05F55
:100750000546002092469B46884606468146402430
:100760001BE02846414647462246FFF727FD5346F1
:100770005A46C01A914110D311461846224600F03D
:1007800016F82D1A67EB01084F462246012000217A
:1007900000F00DF817EB00094E41201EA4F10104F2
:1007A000DFDC484631462A464346BDE8F09F202A12
:1007B00004DB203A00FA02F1002070479140C2F1B8
:1007C000200320FA03F3194390407047202A06DBE8
:1007D000CB17203A41FA02F043EAE07306E041FA0F
:1007E00002F3D040C2F120029140084319467047FD
:1007F0000029A8BF7047401C490008BF20F0010035
:10080000704710B4B0FA80FC00FA0CF050EA010412
:1008100004BF10BC704749B1CCF1200421FA04F4A4
:1008200011FA0CF118BF012121430843A3EB0C017D
:10083000CB1D4FEA00614FEA102042BF002010BCE0
:10084000704700EBC35010440029A4BF10BC704790
:10085000401C490008BF20F0010010BC704710B5D3
:10086000141E73F1000408DA401C41F100019218D3
:100870005B411A4301D120F0010010BD2DE9F04D7C
:1008800092469B4611B1B1FA81F202E0B0FA80F2D1
:1008900020329046FFF78BFF04460F4640EA0A00DD
:1008A00041EA0B0153465A46084313D0114653EA16
:1008B000010019D0C8F140025046FFF77FFC054601
:1008C0000E46504659464246FFF771FF084305D091
:1008D000012004E020463946BDE8F08D00200543A4
:1008E00046EAE0762C4337430A986305E40AA0EB16
:1008F00008000022FD0A44EA47540A3002D50020CD
:100900000146E9E7010510196941DDE908450019CB
:100910006941BDE8F04DA2E72DE9F04D81EA0304FD
:1009200004F0004B21F0004514464FF0000A23F07C
:10093000004150EA050220D054EA01021DD0C5F35F
:100940000A570246C5F31303C1F31300C1F30A5655
:1009500040F4801543F48013A7EB0608101BD6461D
:1009600008F2FD3873EB050002D308F1010801E03D
:1009700092185B41B8F1000F03DA00200146BDE890
:10098000F08D00204FF48011064684460EE0171BC0
:1009900073EB050705D3121B63EB050306434CEA13
:1009A000010C49084FEA300092185B4150EA0107F8
:1009B000EDD152EA030012D082EA040083EA050175
:1009C000084305D0101BAB4106D20122002306E0EC
:1009D00000224FF0004302E06FF0010253101AEBC7
:1009E00006004CEB085110EB0A0041EB0B01BDE88F
:1009F000F04DFFF734BF70B521F0004303430CD036
:100A0000C1F30A550024D5EB040564EB0403D617A3
:100A1000AD1AB34102DB0020014670BD201841EB46
:100A2000025170BDC1F30A52C1F3130140F2FF330A
:100A300041F480119A4202DA00200146704740F2E8
:100A400033439A42A2F2334202DC5242FFF7B6BB72
:100A5000FFF7ADBE30B5041E71F1000404DB4FF0AA
:100A60000044404264EB0101141E73F1000405DBF5
:100A70001C464FF00043524263EB0403994208BF07
:100A8000904230BD064C074D06E0E06840F001039F
:100A900094E8070098471034AC42F6D3FFF72AFBDE
:100AA000607B0008807B0008420005D0C0F3C7527D
:100AB0005242914201DC0020704700EBC150704768
:100AC0002DE9F04D00231A461B1A8A4103DB002052
:100AD0000146BDE8F08DC1F30A52C1F3130141F4A0
:100AE00080154FF0000BD10702D100186D41521E46
:100AF0000027044640F2FF11384601EB620A3E46E9
:100B00008046024600204FF48011FFF757FBC219C0
:100B10007141BB1846EB0100B4EB030C75EB000C04
:100B200004D3E41A65EB000517460E46241908F1B4
:100B300001006D4180463428E3DDF91946EB0600DB
:100B4000091BA84103D24FF0FF32134601E00022F7
:100B500013461BEB070046EB0A51BDE8F04DFFF7CB
:100B60007EBE70B58C1810F8015B15F0070301D13B
:100B700010F8013B2A1106D110F8012B03E010F800
:100B8000016B01F8016B5B1EF9D12B0705D4002323
:100B9000521E0DD401F8013BFAE710F8013BCB1AC5
:100BA000921C03E013F8015B01F8015B521EF9D5BA
:100BB000A142D8D3002070BD70B50446002520683E
:100BC000806800F0010018B32068806820F0010000
:100BD0002168886001F0B6FF054613E001F0B2FF1E
:100BE000401B02280ED92068806800F0010048B13F
:100BF000A06A40F01000A062E06A40F00100E062EC
:100C0000012070BD2068806800F001000028E5D157
:100C10000020F6E72DE9F05F784A911E881E04F067
:100C2000AAF8764A921D911E881E04F0C7F87348F0
:100C3000001F008872490988401A00B26F49091FD5
:100C40000880084640886E494988401A00B26B49BE
:100C5000091F48800846808869498988401A00B27F
:100C60006649091F88800846C0886549C988401AB6
:100C700000B26249091FC880084600896049098995
:100C8000401A00B25D49091F0881084640895C4945
:100C90004989401A00B25949091F4881B1F9000039
:100CA000FFF78FFC04462146564800F0DEFE55490A
:100CB0008868FFF7A5FC00B25049091F0880B1F908
:100CC0000200FFF77EFC044621464E48183000F033
:100CD000CCFE4C49086AFFF793FC00B24749091F54
:100CE0004880B1F90400FFF76CFC044621464548F2
:100CF000303000F0BAFE4349886BFFF781FC00B248
:100D00003E49091F8880B1F90600FFF768FC0646D6
:100D10004FF033323C4BFFF7E2FB804689463B49BC
:100D2000B1F90000FFF75BFC06464FF03332384B59
:100D3000FFF7D5FB824642464B46FFF729FB0446A8
:100D4000FFF78BFC00B22D49091FC8800846C088F8
:100D50002E4908802949091FB1F90800FFF73FFC17
:100D600006464FF03332284BFFF7B9FB04460D46D9
:100D70002649B1F90200FFF732FC06464FF0333244
:100D8000234BFFF7ACFB804622462B46FFF700FBC8
:100D90008246FFF762FC00B21849091F0881084625
:100DA00000891A4908801549091FB1F90A00FFF79F
:100DB00016FC06464FF03332134BFFF790FB044608
:100DC0000D461249B1F90400FFF709FC06464FF041
:100DD00033320F4BFFF783FB804622462B46FFF74B
:100DE000D7FA8246FFF739FC00B20449091F48814F
:100DF0000846408905490880BDE8F09FA8430020C7
:100E0000D8420020E40000203333C33FAA00002072
:100E10003333EB3FF0B58BB00526774200200990C5
:100E20000A9007900890182101A8FFF7DEF91E2507
:100E300044E000BF0A2001F0D1FCFFF7EBFE42487E
:100E4000C088BDF82410401A00B2ADF81C003E481E
:100E50000089BDF82610401A00B2ADF81E003A48CD
:100E60004089BDF82810401A00B2ADF8200036487D
:100E7000C088ADF8240034480089ADF82600324817
:100E80004089ADF82800BDF91C0010F1050FD1DB39
:100E9000BDF91C000528CDDCBDF91E0010F1050FC1
:100EA000C8DBBDF91E000528C4DCBDF9200010F127
:100EB000050FBFDBBDF920000528BBDC281EA5F10E
:100EC0000101CDB2B5D100242BE0FFF7A3FE642CC5
:100ED00025DB1D49B1F900100198084401901A4919
:100EE000B1F902100298084402901748B0F90400C2
:100EF000A0F580400399084403901349B1F9061006
:100F00000498084404901049B1F908100598084461
:100F100005900D49B1F90A10069808440690601C26
:100F200084B2B4F5B27FD0DB002009E001A951F80A
:100F30002010C1F30F21054A22F81010411CC8B23D
:100F40000628F3DB0BB0F0BDA4430020D8420020FC
:100F500070B5124C1249B1F9061040F2DC52501A29
:100F6000FFF72FFB05462146FFF7A2F90D49086060
:100F70000B49B1F9041040F2DC52501AFFF721FB83
:100F800005462146FFF794F9074908600020074904
:100F9000886108600649886070BD00000AD7233D5B
:100FA000BC430020E44200200443002024430020EE
:100FB000B04300202DE9F04787480078012804D08D
:100FC000022813D005287CD11BE00020834908802B
:100FD00083490880834908808349088083480078D2
:100FE000012802D102207C490870A5E08048B0F9B0
:100FF000000040F24C41884202DD0520764908702D
:101000009AE07B480088A0F57A7004B27848B0F97D
:101010000000B0F57F7F09DA00207349088071492C
:1010200008806F4908806D49088085E0002C01DA4E
:10103000002006E0B4F5617F02DD4FF4617000E04E
:10104000204680B268490880664908806449088063
:1010500062490880674AD169674AD069FFF7D0F8CA
:1010600080466648C1694046FFF7CAF806465B48B5
:101070000088FFF7AFFA07463146FFF7C1F805468B
:10108000FFF7D7FA554908805A4AD1695A4AD069B8
:10109000FFF708F980465948C1694046FFF702F951
:1010A00006464F480088FFF795FA07463146FFF796
:1010B000A7F80546FFF7BDFA494908804E48C069C0
:1010C00000E038E080F000484A48C1694046FFF738
:1010D000E9F807464948C1693846FFF791F80646DE
:1010E00040480088FFF776FA81463146FFF788F8D6
:1010F0000546FFF79EFA3B4908803F48C06980F0EB
:1011000000483C48C1694046FFF77AF807463B482B
:10111000C1693846FFF7C6F8064633480088FFF72E
:1011200059FA81463146FFF76BF80546FFF781FA19
:101130002D49088000E000BF00BF2A480088002831
:1011400001DA002009E027480088B0F57A7F02DD47
:101150004FF47A7001E02348008829490968486300
:101160001F480088002801DA002009E01C48008898
:10117000B0F57A7F02DD4FF47A7001E018480088FC
:1011800020490968886318480088002801DA00208F
:1011900009E015480088B0F57A7F02DD4FF47A70D7
:1011A00001E0114800881849096808640B48008864
:1011B000002801DA002009E008480088B0F57A7FAD
:1011C00002DD4FF47A7001E0044800880F49096895
:1011D000C863BDE8F0870000B7000020A000002031
:1011E000A2000020A4000020A6000020860000200D
:1011F000BC4300206443002044430020844300207B
:10120000E40200209C0200202C0300205402002055
:1012100070B504462F480078012804D002280AD06F
:10122000052853D10FE02C480078012802D1022074
:10123000284908704BE00621284804F099FA052057
:101240002449087043E026480068264988612448FC
:10125000406825498861224880682449886124497A
:10126000B1F90600FFF7ADF90546224801682846A6
:10127000FFF71EF8204988611D49B1F90800FFF702
:10128000A0F905461B4801682846FFF711F81B49DD
:1012900088611749B1F90A00FFF793F90546154827
:1012A00001682846FFF704F815498861224613496A
:1012B0000C4800F0CBFB22460F490B4800F0C6FB60
:1012C00022460F49094800F0C1FB00E000BF00BF03
:1012D00070BD0000B60000208600002088000020BD
:1012E000B0430020E44200200443002024430020B7
:1012F000A4430020047B00084443002064430020F2
:101300008443002010B52E480088012802D100F047
:1013100085F853E02A48008840F2E24188424DDDDA
:1013200028A004F063FD40F2DC502B49C88088807F
:1013300048800846B0F90000B0F5966F10DA4FF417
:101340007A70088025A004F051FD00BF04F096F8E3
:101350000028FBD104F0E0F825A004F047FD16E0DA
:10136000294801880088401C274A108064290EDD26
:101370001948B0F9001025A004F038FD164800887F
:10138000323800B21449088000201F4908801248F2
:10139000B0F90000B0F57A7F02DA4FF47A700BE012
:1013A0000D48B0F90000B0F5FA6F02DD4FF4FA60B5
:1013B00002E00948B0F900000749088010BD0000AC
:1013C0007A000020CAA7C1AAA3A1A3A1A3A1A3A197
:1013D000A3A1A3A10D0A0000BC430020D6D8C6F4E7
:1013E000322E3447212121212121210D0A00000024
:1013F000D6D8C6F4322E3447B3C9B9A6212121214B
:101400002121210D0A000000B4000020D3CDC3C566
:10141000A3BA2564202D35300D0A000010B53C48D4
:10142000007810B906203A49087039480078072832
:1014300068D2DFE800F0670412202E385B003548E0
:10144000B0F9000040F20641884205DA32A004F00B
:10145000CDFC02202E49087058E02E48B0F900005B
:1014600040F29E71884205DD31A004F0BFFC0320EC
:10147000274908704AE02748B0F9000040F20641C9
:10148000884205DA30A004F0B1FC0420204908703D
:101490003CE033A004F0AAFC012037490870052085
:1014A0001B49087032E035A004F0A0FC1948B0F9DF
:1014B000000040F20641884211DA3648018800886F
:1014C000401C344A1080B1F57A7F08DD00202A499B
:1014D000087001200E490870002011460880264837
:1014E000007810B906200A4908700FE02AA004F01D
:1014F0007DFC00202049087026490880012004490D
:10150000087003E006200249087000BF00BF10BD4C
:10151000B0000020BC4300203D3D3D3D3D3D3D3DF4
:101520003D57313D3D3D3D3D3D3D3D3D0D0A0000BA
:101530003D3D3D3D3D3D3D3D3D57323D3D3D3D3DCC
:101540003D3D3D3D0D0A00003D3D3D3D3D3D3D3DA8
:101550003D57333D3D3D3D3D3D3D3D3D0D0A000088
:101560003D3D3D3D3D3D3D3D3D57343D3D3D3D3D9A
:101570003D3D3D3D0D0A0000860000203D3D3D3DC6
:101580003D3D3D3D3D503D3D3D3D3D3D3D3D3D0DA8
:101590000A000000B2000020212121212121212167
:1015A00021212121212121212120657869740D0A21
:1015B000000000002DE9F04104460D465648008821
:1015C000401C554908800846008801287BD1002727
:1015D00000262078AA2802D16078AF2804D04FA036
:1015E00004F004FCBDE8F081A078032803D04EA0ED
:1015F00004F0FCFBF6E7281F205C0106E81E205CD7
:1016000041EA0041A81E205C41EA0020691E615C9D
:1016100040EA0107002003E0215C0E44411CC8B2EF
:10162000291F8142F8DCB74203D043A004F0DEFB5F
:10163000D8E7A078032862D16079217940EA0120B7
:1016400000B241490880E079A17940EA012000B266
:101650003D494880607A217A40EA012000B23A4947
:101660008880E07AA17A40EA012000B23649C88039
:10167000607B217B40EA012000B233490881E07B96
:10168000A17B40EA012000B22F494881607C217C87
:1016900040EA012000B22C498881E07CA17C40EA2C
:1016A000012000B22849C881607D217D40EA0120E7
:1016B00000B225490882E07DA17D40EA012000B208
:1016C0002149488200E01BE020A004F08FFB1E4867
:1016D000B0F9001021A004F089FB1B48B0F90210FA
:1016E00021A004F083FB1848B0F9041021A004F0F5
:1016F0007DFB1548B0F9061021A004F077FB00BF70
:101700000548008841F28831884203DD40F2E34019
:101710000149088000BF65E77A000020D6A1CDB757
:10172000B4EDCEF30D0A0000B9A6C4DCCEBBB4ED17
:10173000CEF30D0A00000000D0A3D1E9BACDB4ED7C
:10174000CEF30D0A00000000BC430020BBF1C8A18D
:10175000B5C4D6B5A3BA0D0A000000005448523DE6
:1017600025640D0A000000005941573D25640D0A0B
:1017700000000000524F4C3D25640D0A000000009F
:101780005049543D25640D0A000000004FF04040D0
:101790001649C86040421649C86016481649C860D4
:1017A0000020124908611249086113490861134871
:1017B0000E49486112480E49486100200E494861AF
:1017C00010481149C8601149C86011481149C860E2
:1017D00000200D4908610D4908610E4908610A4958
:1017E00048610A4948610B494861704744430020F9
:1017F00064430020000040C0844300200AD7A3BDFA
:101800000AD7A33D0000E040E4420020044300204A
:10181000000080C02443002010B501F093F984B289
:1018200061480088201A61490988884204DD002047
:101830005E4988705C480480322000F0CFFF5B482E
:101840008078062818D2DFE800F003182D425A727B
:101850004FF48051564803F07DFA4FF4006154482C
:1018600003F078FA4FF40041524803F073FA4FF452
:101870008041504803F06EFA94E04FF480514C4898
:1018800003F05FFA4FF40061494803F05AFA4FF44D
:101890000041484803F055FA4FF48041454803F0B1
:1018A00050FA7FE04FF48051414803F05CFA4FF466
:1018B00000613F4803F057FA4FF400413D4803F000
:1018C00052FA4FF480413B4803F04DFA6AE04FF47E
:1018D0008051374803F03EFA4FF40061344803F07A
:1018E00039FA4FF40041334803F02BFA4FF48041AA
:1018F000304803F026FA02202C49887052E04FF459
:1019000080512B4803F026FA4FF40041294803F098
:1019100021FA4FF40061264803F013FA4FF4804196
:10192000244803F00EFA0220204988703AE0224849
:101930000088401C20490880084600880A2814DADC
:101940004FF480511A4803F005FA4FF4006118482B
:1019500003F000FA4FF40041164803F0FBF94FF48E
:101960008041144803F0F6F91BE0134800880C2866
:1019700014DA4FF480510E4803F0F5F94FF400618A
:101980000B4803F0F0F94FF400410A4803F0EBF97B
:101990004FF48041074803F0E6F902E000200649D1
:1019A000088000BF00BF10BDA800002080000020FC
:1019B00000080140000C01408400002008B505F03B
:1019C0000DFF009013E0FFF725F9094A09490A487D
:1019D00000F0AEF8FFF7BCFA0548FFF719FCFFF777
:1019E000E9FA00BF0221684605F0AEFE00BFEAE753
:1019F0006F12033BB0430020A443002008B505F05C
:101A0000EDFE00900EE0084803F0CCFD1C210648D6
:101A1000FFF7D0FDFFF776FC00BF0421684605F014
:101A200093FE00BFEFE70000BC42002008B505F0C0
:101A3000D5FE009007E0FFF7EFFE00BF32216846B9
:101A400005F082FE00BFF6E700BFFEE770B5054671
:101A50000C4616463146284603F018FEE869206019
:101A60003146204603F012FE70BD2DE9F0410446D8
:101A70000D4621692068FEF7C3FB606061696068FC
:101A8000FEF7BEFB064631466068FEF743FCE060A9
:101A90002846A168FEF706FC0746E168FEF708FC49
:101AA0000646A168FEF7ACFBA0604FF07E50E168EF
:101AB000FEF7F8FB06466168FEF7FAFB2060BDE81A
:101AC000F081000010B5024800F086FD10BD000056
:101AD000640100207047000001B582B04FF4FA6045
:101AE000012301AA02A90090024802F019F99DF809
:101AF00004000EBDFC01002072B600BFFEE700002E
:101B00001CB50648012100230A02CDE9001004A1FA
:101B1000064805F0E5FD05F041FD1CBDB8000020BC
:101B200053746172745F5461736B000099580008BC
:101B300007B59CB04FF07C511E98FEF7B9FB0A9098
:101B4000FE4880680690FD48006805900699FEF7FB
:101B5000AFFB0890F948C0680690F84840680590C7
:101B60000699FEF7A5FB07900899FEF79BFB4FF03F
:101B700080410990FEF79CFB1990F048C0680690E0
:101B8000EE48806805900699FEF792FB0890EB48B6
:101B900040680690E948006805900699FEF788FBC2
:101BA00007900899FEF72CFB4FF080410990FEF753
:101BB0007FFB1A90E14880680590E04880680490B7
:101BC0000599FEF775FB0790DC4840680590DB48F7
:101BD000406804900599FEF76BFB06900799FEF7A5
:101BE0000FFB4FF080410890FEF762FB4FF07E51F3
:101BF0000990FEF75AFB1B90D148B0F904000490FD
:101C0000FEF7DFFC0690CE48B0F904000490FEF722
:101C1000D8FC05900699FEF74BFB0890C848B0F930
:101C200002000290FEF7CDFC0490C548B0F9020016
:101C30000290FEF7C6FC03900499FEF739FB06906C
:101C4000BF48B0F900000290FEF7BBFC0490BC480E
:101C5000B0F900000290FEF7B4FC03900499FEF77F
:101C600027FB05900699FEF7CBFA07900899FEF737
:101C7000C7FA099003F040FD0B901C98B0F90000E2
:101C80000890FEF79EFC09900B99FEF711FB169049
:101C90001C98B0F902000890FEF793FC09900B998C
:101CA000FEF706FB17901C98B0F904000890FEF7A9
:101CB00088FC09900B99FEF7FBFA18901A98079088
:101CC000189806900799FEF7F3FA09901B98079069
:101CD000179806900799FEF7EBFA08900999FEF716
:101CE000E1FA10901B980790169806900799FEF756
:101CF000DFFA099019980790189806900799FEF74F
:101D0000D7FA08900999FEF7CDFA11901998079023
:101D1000179806900799FEF7CBFA09901A98079042
:101D2000169806900799FEF7C3FA08900999FEF7EE
:101D3000B9FA129010980890824801680898FEF746
:101D4000B7FA099080480068014608900998FEF7A4
:101D500057FA7D490860119808907A4801680898F8
:101D6000FEF7A6FA0990784840680146089009985D
:101D7000FEF746FA74494860129808907148016865
:101D80000898FEF795FA09906F4880680146089018
:101D90000998FEF735FA6C4988601098014606905C
:101DA0006A480068FEF784FA08901C98B0F90600AB
:101DB0000590FEF706FC66490690FEF779FA079053
:101DC0000899FEF71DFA09905F48006801460890DF
:101DD0000998FEF715FA13901198014606905B4892
:101DE0000068FEF765FA08901C98B0F908000590A5
:101DF000FEF7E7FB56490690FEF75AFA0790089956
:101E0000FEF7FEF90990504840680146089009988D
:101E1000FEF7F6F914901298014606904B480068B8
:101E2000FEF746FA08901C98B0F90A000590FEF7F4
:101E3000C8FB47490690FEF73BFA07900899FEF762
:101E4000DFF9099040488068014608900998FEF73C
:101E5000D7F91590159806903848C06805900699EE
:101E6000FEF726FA0890149804903448806803908E
:101E70000499FEF71DFA06903048406880F0004053
:101E800004901398014603900498FEF711FA059008
:101E90000699FEF707FA07900899FEF703FA0990EA
:101EA0000A99FEF705FA0F90159806902348806866
:101EB00005900699FEF7FCF90890149804901F48C5
:101EC000C06803900499FEF7F3F906901398049004
:101ED0001A48006803900499FEF7EAF905900699FC
:101EE000FEF7E0F907900899FEF78AF909900A9938
:101EF000FEF7DEF90E9015980690104840680590A0
:101F00000699FEF7D5F90890149804900B480068DC
:101F100003900499FEF7CCF90690139804900748B3
:101F2000C06803900499FEF7C3F905900699FEF77F
:101F300067F907900899FEF7B5F90BE0D400002087
:101F4000A4430020D0000020D0430020CC0000207B
:101F50002E9E8B3A09900A99FEF7AAF90D901598D2
:101F60000690C248006805900699FEF7A1F908900E
:101F700014980490BD48406803900499FEF798F9BE
:101F80000690BA48806880F000400490139801469B
:101F900003900498FEF78CF905900699FEF730F946
:101FA00007900899FEF72CF909900A99FEF780F935
:101FB0000C90AE48006809900F99FEF721F9AB49E3
:101FC00008600846406809900E99FEF719F9A7497C
:101FD00048600846806809900D99FEF711F9A349F9
:101FE00088600846C06809900C99FEF709F99F4976
:101FF000C8600846C06806900846C0680590069903
:10200000FEF756F9089099488068049097488068D0
:1020100003900499FEF74CF90690944840680290AA
:102020009248406801900299FEF742F904908F4867
:10203000006802908D48006801900299FEF738F917
:1020400003900499FEF7DCF805900699FEF7D8F89E
:1020500007900899FEF7D4F8099003F04DFB0B9018
:102060008248006809900B99FEF722F97F490860C1
:102070000846406809900B99FEF71AF97B494860B9
:102080000846806809900B99FEF712F97749886035
:102090000846C06809900B99FEF70AF97349C860B1
:1020A00008464068014602904FF08040FEF700F974
:1020B00003906E48C068014602900398FEF7F8F856
:1020C00005906A480068014602904FF08040FEF794
:1020D000EFF8039065488068014602900398FEF788
:1020E000E7F804900599FEF7DDF809905F4800686D
:1020F000014602904FF08040FEF7DAF803905B480B
:102100004068014602900398FEF7D2F805905748C0
:102110008068014602904FF08040FEF7C9F80390B6
:102120005248C068014602900398FEF7C1F8049037
:102130000599FEF765F808904C48806801460290C2
:102140004FF08040FEF7B4F803904848806801469D
:1021500002900398FEF7ACF80590444840680146A9
:1021600001904FF08040FEF7A3F802903F4840688E
:10217000014601900298FEF79BF84FF07E510390C4
:10218000FEF793F804900599FEF78CF807901C98D9
:10219000B0F90A000490FEF714FA35490590FEF7ED
:1021A00087F806904FF07E510698FEF7AFFA04D3F9
:1021B00030490698FEF7A0FA0DD21E990698FEF750
:1021C00077F805901D988068014604900598FEF701
:1021D00017F81D9988600998FEF75EFACDE90001AD
:1021E00004F034FB4FF00052234BCDE90201FEF71F
:1021F00076F9CDE90401FEF762FA1D990860DDE980
:10220000071004F05BFC1D490590FEF751F81D997D
:1022100048601C98B0F904000290FEF7D2F90390D0
:102220000799FEF745F805901C98B0F90200009058
:10223000FEF7C7F901900899FEF73AF803901C9849
:10224000B0F900000090FEF7BCF901900999FEF783
:102250002FF802900399FDF7D3FF04900599FDF73D
:10226000CFFF074908601FB000BD0000D400002068
:10227000F6FF793D000080BFDCA54C40E12E6542B1
:10228000C800002038B5024600230020009000BF9F
:1022900092F82400012801D1022038BD012082F8E3
:1022A000240000BF4868072812D21068406B0C79E0
:1022B000641E04EB84051F24AC40A0430D796D1E01
:1022C00005EB85050C68AC4020431468606327E08B
:1022D00048680D2812D21068006B0C79E41F04EBDB
:1022E00084051F24AC40A0430D79ED1F05EB850547
:1022F0000C68AC4020431468206311E01068C06A89
:102300000C790D3C04EB84051F24AC40A0430D79EF
:102310000D3D05EB85050C68AC4020431468E06278
:1023200008680A2812D31068C0680C780A3C04EBCD
:1023300044050724AC40A0430D780A3D05EB450554
:102340008C68AC4020431468E0600FE010680069BE
:102350000C7804EB44050724AC40A0430D7805EB52
:1023600045058C68AC40204314682061086810283B
:1023700002D00868112827D1174C1068A0421ED13E
:102380001068806800F40000F0B91068806840F4BC
:1023900000001468A0600868102815D10F48006874
:1023A0000F4CB0FBF4F000EB80004000009002E026
:1023B0000098401E009000980028F9D104E0906A2F
:1023C00040F020009062012300BF002082F824002A
:1023D00000BF184661E70000002401400C00002007
:1023E00040420F002DE9F041044600270025002659
:1023F000A84614B90120BDE8F081A06810B1207D85
:1024000000B100BFA06A30B90020E06284F8240067
:10241000204600F089F82046FEF7CEFB0746A06A6A
:1024200000F01000002873D1002F71D1A06A20F4B1
:10243000885040F00200A062E16960680843217B97
:1024400040EA41000643A068B0F5807F02D0A06852
:10245000012802D14FF4807000E000200543207D68
:10246000012811D1207B38B9A069401E4FF40061CA
:1024700041EA4030054307E0A06A40F02000A06236
:10248000E06A40F00100E0622068406820F46940A2
:10249000284321684860206880682149084030430B
:1024A00021688860A068B0F5807F02D0A06801280C
:1024B00002D14FF4807000E00020B0F5807F03D19E
:1024C000208A401E4FEA00582068C06A20F470003D
:1024D00040EA08002168C862206880681149084005
:1024E000B04208D10020E062A06A20F0020040F073
:1024F0000100A06211E0A06A20F0020040F010008C
:10250000A062E06A40F00100E062012705E0FFE719
:10251000A06A40F01000A062012738466BE7000077
:10252000FDF7E1FFFE0E1FFF10B586B00446002048
:1025300002900390049005902249206888423ED181
:1025400000BF2148806940F400701F498861084637
:10255000806900F40070019000BF00BF00BF084612
:10256000806940F0080088610846806900F0080032
:10257000019000BF00BF022002900320039002A937
:10258000124800F03FF912481249086000204860E4
:102590000021104881608021C160490001618900EB
:1025A0004161202181610021C16100F0E3F808B19F
:1025B000FFF7A2FA00BF07482062446200BF06B0DE
:1025C00010BD00000024014000100240000C01403A
:1025D000080002406401002070B50446E06B056805
:1025E0002068066894F8401004208840284000289D
:1025F00046D006F00400002842D02068006800F0B1
:10260000200028B92068006820F0040021680860D4
:1026100057492068884201D1042027E054491431E9
:102620002068884201D1402020E0514928312068AB
:10263000884201D1001519E04D493C31206888429B
:1026400002D14FF4804011E049495031206888425E
:1026500002D14FF4802009E0454964312068884266
:1026600002D14FF4800001E04FF08060404908390A
:102670004860E06A00287AD02046E16A884776E020
:1026800094F84010022088402840A0B306F00200D1
:1026900088B32068006800F0200040B92068006816
:1026A00020F00A0021680860012084F821003049E8
:1026B0002068884201D1022028E02D491431206889
:1026C000884201D1202021E0294928312068884210
:1026D00001D140151AE026493C312068884202D1D8
:1026E0004FF4005012E0224950312068884203D153
:1026F0004FF400300AE017E01D4964312068884239
:1027000002D14FF4001001E04FF000701849083971
:10271000486000BF002084F8200000BFA06A30B3EA
:102720002046A16A884722E094F84010082088409B
:102730002840E0B106F00800C8B12068006820F029
:102740000E002168086094F8401001208840E16B79
:1027500048600120A06384F8210000BF002084F8B5
:10276000200000BF206B10B12046216B884770BD50
:10277000080002400146002209B901207047164BAB
:102780000868C01A1423B0FBF3F0800008641248F4
:102790000838C863022081F821000868026843F6FF
:1027A000F0708243D1E901031843CB6818430B69E9
:1027B00018434B6918438B691843CB69184302438C
:1027C0000868026000208863012081F82100002051
:1027D00081F8200000BFD1E70800024070B5044630
:1027E00000F0B0F906462546681C10B10448007890
:1027F000054400BF00F0A6F9801BA842FAD370BDC3
:10280000080000202DE9F8470346002294466EE1B7
:102810004FF0010808FA02F4D1F8008008EA040039
:10282000A0427DD1DFF8DCA2D1F80480A8EB0A0930
:10283000D0453AD014DCB8F1030F50D009DCB8F120
:10284000000F31D0B8F1010F1CD0B8F1020F49D1FF
:1028500020E0B8F1110F18D0B8F1120F42D11EE0EC
:10286000B9F5881F25D006DCB9F5803F20D0B9F531
:10287000801F37D11AE0B9F5001F18D0B9F5041F31
:1028800030D117E0D1F80CC02DE0D1F80C8008F160
:10289000040C28E0D1F80C8008F1080C23E0D1F8F2
:1028A0000C8008F10C0C1EE000BF00BF00BF00BF91
:1028B00000BF00BFD1F80880B8F1000F02D14FF07F
:1028C000040C0BE0D1F80880B8F1010F03D14FF0F0
:1028D000080C1C6102E04FF0080C5C6103E04FF053
:1028E000000C00E000BF00BFFF2801D8984601E0BF
:1028F00003F104084646FF2802D84FEA820803E0A5
:10290000A2F108084FEA88084746D6F800804FF041
:102910000F0909FA07F928EA09080CFA07F900E093
:1029200088E048EA0908C6F80080D1F8048008F079
:102930008058B8F1805F7DD100BFDFF8CC81D8F836
:10294000188048F00108DFF8C091C9F81880C8461F
:10295000D8F8188008F00108CDF8008000BF00BF4B
:102960004FEAB9384FEA920958F829504FEA82786D
:102970004FEA18794FF00F0808FA09F825EA080518
:10298000DFF88881434502D14FF0000816E0DFF8F8
:102990008081434502D14FF001080FE0DFF87481D8
:1029A000434502D14FF0020808E0DFF86C8143454F
:1029B00002D14FF0030801E04FF004084FEA82799A
:1029C0004FEA197908FA09F848EA0505DFF84C8159
:1029D0004FEA920948F82950D1F8048008F4801889
:1029E000B8F5801F0AD1DFF83881D8F8008048EAAE
:1029F0000008DFF82C91C9F8008009E0DFF8208199
:102A0000D8F8008028EA0008DFF81491C9F800809F
:102A1000D1F8048008F40018B8F5001F10D1DFF8D1
:102A2000008108F10408D8F8008048EA0008DFF8BF
:102A3000F09000E05AE009F10409C9F800800DE0C7
:102A4000DFF8DC8008F10408D8F8008028EA0008E4
:102A5000DFF8CC9009F10409C9F80080D1F80480AE
:102A600008F40038B8F5003F0ED1DFF8B480A8F1C3
:102A70000408D8F8008048EA0008DFF8A490A9F11B
:102A80000409C9F800800DE0DFF89480A8F104087B
:102A9000D8F8008028EA0008DFF88490A9F104093A
:102AA000C9F80080D1F8048008F48038B8F5803F78
:102AB0000ED1DFF86C80A8F10808D8F8008048EA49
:102AC0000008DFF85C90A9F10809C9F800800DE062
:102AD000DFF84C80A8F10808D8F8008028EA000840
:102AE000DFF83C90A9F10809C9F80080521CD1F820
:102AF000008028FA02F8B8F1000F7FF489AEBDE833
:102B0000F88700000000111000100240000801408A
:102B1000000C014000100140001401400800014079
:102B20000804014010B5C26821EA020302EA010468
:102B300043EA0443036110BD0AB1016101E00B04E3
:102B400003617047014800687047000000000020E2
:102B500070B504460CB9012070BD94F83D0028B949
:102B6000002084F83C00204600F03EFB242084F83E
:102B70003D002068006820F001002168086020689E
:102B8000006840F40040216808602068006820F474
:102B900000402168086000F097FD05465C496068C8
:102BA000884206D85B48854201D2012007E0002018
:102BB00005E05948854201D2012000E000200128AB
:102BC00000D1C9E75548B5FBF0F62068406820F011
:102BD0003F003043216848604D496068884201D811
:102BE000701C07E04FF4967070434FF47A71B0FB9D
:102BF000F1F0401C2168096A21F03F010843216877
:102C0000086243496068884214D8681E61684900B8
:102C1000B0FBF1F0401CC0F30B00042801D20420EB
:102C20003DE0681E61684900B0FBF1F0401CC0F354
:102C30000B0034E0A06838B9681E616801EB4101FF
:102C4000B0FBF1F0401C0AE0681E616801EBC102B4
:102C500002EB0111B0FBF1F0401C40F48040C0F3E6
:102C60000B0008B901201AE0A06848B9681E616825
:102C700001EB4101B0FBF1F0401CC0F30B000CE094
:102C8000681E616801EBC10202EB0111B0FBF1F0BB
:102C9000401CC0F30B0040F4804040F40040216829
:102CA000C9694CF6FF72914308432168C861D4E9B1
:102CB000070108432168096821F0C0010843216821
:102CC0000860D4E9031008432168896848F2FF329C
:102CD0009143084321688860D4E9050108432168CD
:102CE000C96821F0FF0108432168C86020680068B6
:102CF00040F001002168086000202064202084F852
:102D00003D000020206384F83E0000BF24E700005F
:102D1000A086010080841E0000093D0040420F0093
:102D20002DE9FE4F04460F4690469946DDE90CAB6F
:102D30000E9E00200290FFF705FF054694F83D0027
:102D4000202872D119230122CA492046009501F09A
:102D5000A4FE10B10220BDE8FE8F00BF94F83C0035
:102D6000012801D10220F6E7012084F83C0000BFD1
:102D70002068006800F0010028B92068006840F071
:102D80000100216808602068006820F40060216864
:102D90000860222084F83D00402084F83E00002096
:102DA0002064C4F824A0A4F82AB0608D2085B2481D
:102DB000E0624B46424639462046CDE9006501F0C7
:102DC00019FD08B10120C6E7208D88B900BF002099
:102DD000019020684069019020688069019000BFDF
:102DE00000BF2068006840F40070216808604BE074
:102DF000208D01281AD12068006820F480602168A5
:102E0000086072B600BF0020019020684069019000
:102E100020688069019000BF00BF2068006840F40E
:102E200000702168086062B62EE020E1208D022843
:102E300019D12068006840F400602168086072B60B
:102E400000BF0020019020684069019020688069DF
:102E5000019000BF00BF2068006820F480602168F6
:102E6000086062B610E02068006840F48060216865
:102E7000086000BF00200190206840690190206830
:102E80008069019000BF00BFE2E0208D03287DD85B
:102E9000208D012815D12A463146204601F0D9FE61
:102EA00008B1012057E720680069616A0870606A0C
:102EB000401C6062208D401E2085608D401E608514
:102EC000C6E0208D02282CD1334600226B492046D3
:102ED000009501F0E2FD08B101203CE772B62068E0
:102EE000006840F400702168086020680069616A29
:102EF0000870606A401C6062208D401E2085608DD5
:102F0000401E608562B620680069616A0870606A68
:102F1000401C6062208D401E2085608D401E6085B3
:102F200096E03346002255492046009501F0B5FD54
:102F300008B101200FE72068006820F48060216854
:102F4000086072B620680069616A0870606A401C97
:102F50006062208D401E2085608D401E608548483F
:102F600000681921B0FBF1F04FF47A71B0FBF1F079
:102F7000C0EBC00000EB8000029000BF0298401E32
:102F800002900298A8B90020206300E039E02020D8
:102F900084F83D00002084F83E00206C40F02000C2
:102FA000206462B600BF002084F83C0000BF01200E
:102FB000D1E620684069C0F380000028DED0206898
:102FC000006840F400702168086020680069616A48
:102FD0000870606A401C6062208D401E2085608DF4
:102FE000401E608562B620680069616A0870606A88
:102FF000401C6062208D401E2085608D401E6085D3
:1030000026E02A463146204601F023FE08B1012081
:10301000A1E620680069616A0870606A401C60620D
:10302000208D401E2085608D401E6085206840698F
:10303000C0F3800060B120680069616A0870606A4E
:10304000401C6062208D401E2085608D401E608582
:10305000208D00287FF419AF202084F83D00002047
:1030600084F83E0000BF84F83C0000BF73E60220F5
:1030700071E60000020010000000FFFF04000100E4
:103080000C0000202DE9FC5F04460F46904699464F
:10309000DDE90CAB0E9EFFF755FD054694F83D00AB
:1030A00020287DD1192301224D492046009501F0A9
:1030B000F4FC10B10220BDE8FC9F00BF94F83C0076
:1030C000012801D10220F6E7012084F83C0000BF6E
:1030D0002068006800F0010028B92068006840F00E
:1030E0000100216808602068006820F40060216801
:1030F0000860212084F83D00402084F83E00002034
:103100002064C4F824A0A4F82AB0608D2085354836
:10311000E0624B46424639462046CDE9006501F063
:1031200019FC08B10120C6E731E02A4631462046A5
:1031300001F0D4FD50B1206C042805D1206800684E
:1031400040F40070216808600120B4E7606A0078EC
:1031500021680861606A401C6062208D401E2085E5
:10316000608D401E608520684069C0F3800070B1AA
:10317000208D60B1606A007821680861606A401C37
:103180006062208D401E2085608D401E6085208DF0
:103190000028CAD12A463146204601F04BFC00E007
:1031A0001CE050B1206C042805D12068006840F470
:1031B00000702168086001207DE72068006840F405
:1031C000007021680860202084F83D00002084F809
:1031D0003E0000BF84F83C0000BF6CE702206AE7B5
:1031E000020010000000FFFF10B586B0044600206A
:1031F000029003900490059015492068884225D1DB
:1032000000BF1448806940F00800124988610846F0
:10321000806900F00800019000BF00BFC02002904C
:10322000122003900320059002A90B48FFF7EAFA49
:1032300000BF0848C06940F400100649C86108464C
:10324000C06900F40010019000BF00BF06B010BDBF
:103250000054004000100240000C01400348006888
:1032600003490978084401490860704700000020BC
:103270000800002010B50848006840F0100006491A
:103280000860032000F0A8F80F2000F007F800F015
:103290002BF8002010BD00000020024070B504464D
:1032A0000E4800784FF47A71B1FBF0F00C490968D0
:1032B000B1FBF0F5284600F053FE08B1012070BDC7
:1032C000102C07D200222146501E00F047F8054876
:1032D000046001E00120F2E70020F0E70800002090
:1032E0000C0000200400002008B500BF11488069D0
:1032F00040F001000F4988610846806900F0010034
:10330000009000BF00BF00BF0846C06940F0805079
:10331000C8610846C06900F08050009000BF00BF3F
:1033200000BF0549486820F0E06040F00070486048
:1033300000BF08BD001002400000014001460846E1
:10334000002809DB00F01F0301229A4043099B007B
:1033500003F1E023C3F8002100BF70472DE9F05FBF
:1033600080460D461646002702F078FD074639468E
:103370002A46334601F00700C0F1070ABAF1040FEC
:1033800002D94FF0040A01E0C0F1070AD14600F16A
:10339000040ABAF1070F02D24FF0000A01E0A0F1CF
:1033A000030AD4464FF0010A0AFA09FAAAF1010AFF
:1033B0000AEA020A0AFA0CFA4FF0010B0BFA0CFBAC
:1033C000ABF1010B0BEA030B4AEA0B042146404622
:1033D00002F04CFDBDE8F09F00BF00F00702064B75
:1033E00019684FF6FF031940044B0B4343EA0221CF
:1033F000014B196000BF70470CED00E00000FA05BA
:10340000F8B5044600260025207800F001000028C9
:103410006BD000274348C06900F0805070B900BFEE
:103420004048C06940F080503E49C8610846C069C4
:1034300000F08050009000BF00BF01273A480068AC
:1034400000F48070B0B93848006840F480703649A4
:103450000860FFF777FB064606E0FFF773FB801B6B
:10346000642801D90320F8BD2F48006800F480705B
:103470000028F2D02B48006A00F440752DB3A088D4
:1034800000F44070A84220D02648006A20F440751D
:10349000012026490860002008602248056205F0E6
:1034A000010090B1FFF74EFB064608E0FFF74AFB2C
:1034B000801B41F28831884201D90320D3E71948A3
:1034C000006A00F002000028F0D01648006A20F4DC
:1034D00040706168084313490862012F04D108460F
:1034E000C06920F08050C86100BF207800F0020061
:1034F000022807D10B48406820F44040A1680843E7
:1035000008494860207800F01000102807D10548CD
:10351000406820F48000E1680843024948600020C8
:10352000A1E7000000100240007000404004424249
:1035300070B504460D460CB9012070BD5A480068AC
:1035400000F00700A8420ED25748006820F007009C
:103550002843554908600846006800F00700A84263
:1035600001D00120E9E7207800F0020002281DD1F7
:10357000207800F00400042805D14C48406840F44D
:10358000E0604A494860207800F00800082805D12A
:103590004648406840F460504449486043484068A9
:1035A00020F0F000A168084340494860207800F00E
:1035B000010078B36068012806D13C48006800F437
:1035C000003090B90120B8E76068022806D137487A
:1035D000006800F0007040B90120AEE73348006891
:1035E00000F0020008B90120A7E73048406820F049
:1035F0000300616808432D494860FFF7A3FA0646B7
:1036000009E0FFF79FFA801B41F28831884202D916
:10361000032092E707E02548406800F00C0061684D
:10362000B0EB810FEDD12048006800F00700A84200
:103630000ED91D48006820F0070028431A49086089
:103640000846006800F00700A84201D0012074E796
:10365000207800F00400042807D11448406820F4C2
:10366000E060E168084311494860207800F00800F4
:10367000082808D10D48406820F46050216940EACC
:10368000C1000A49486000F03FF808494968C1F3A1
:103690000311074A515CC8400649086006480068A3
:1036A000FFF7FCFD002048E7002002400010024028
:1036B000E67A00080C0000200400002001480068A1
:1036C000704700000C00002000B5FFF7F7FF044929
:1036D0004968C1F30221034A515CC84000BD0000A3
:1036E00000100240F67A000800B5FFF7E7FF044932
:1036F0004968C1F3C221034A515CC84000BD0000C3
:1037000000100240F67A000870B500210022002463
:1037100000230020134D696801F00C05F5B1042D5C
:1037200002D0082D19D101E00F4819E00F4DC1F367
:103730008346AB5D01F4803555B10A4D6D68C5F324
:1037400040450B4E725D084D5D43B5FBF2F402E05F
:10375000084D03FB05F4204602E000BF024800BF0D
:1037600000BF70BD0010024000127A00D47A000839
:10377000E47A000800093D00F8B504460CB90120C0
:10378000F8BD207800F00100002878D0F8484068A3
:1037900000F00C0004280CD0F548406800F00C0044
:1037A000082811D1F248406800F48030B0F5803F1D
:1037B0000AD1EF48006800F4003000285FD060684C
:1037C00000285CD10120DBE700BF6068B0F5803FD6
:1037D00006D1E748006840F48030E549086028E0F9
:1037E000606858B9E248006820F48030E049086019
:1037F0000846006820F4802008601AE06068B0F590
:10380000A02F0BD1DA48006840F48020D849086026
:103810000846006840F4803008600AE0D448006838
:1038200020F48030D24908600846006820F48020E7
:10383000086000BF606888B1FFF784F9054606E0BC
:10384000FFF780F9401B642801D9032098E7C84896
:10385000006800F400300028F2D010E0FFF772F9A1
:10386000054606E0FFF76EF9401B642801D90320E6
:1038700086E7BF48006800F400300028F2D12078C5
:1038800000F00200022857D1B948406800F00C004F
:1038900050B1B748406800F00C00082818D1B4486F
:1038A000406800F4803098B9B148006800F0020028
:1038B00020B12069012801D0012061E7AC480068EF
:1038C00020F0F800616940EAC100A949086033E0CE
:1038D0002069E8B10120A7490860FFF733F90546E0
:1038E00006E0FFF72FF9401B022801D9032047E724
:1038F0009F48006800F002000028F2D09C48006851
:1039000020F0F800616940EAC1009949086013E0BD
:10391000002098490860FFF715F9054606E0FFF713
:1039200011F9401B022801D9032029E790480068BB
:1039300000F002000028F2D1207800F008000828EA
:103940002DD1A069B8B101208B490860FFF7FAF8C2
:10395000054606E0FFF7F6F8401B022801D90320D0
:103960000EE78348406A00F002000028F2D00120F0
:1039700001F0EAFE13E000207F490860FFF7E2F85B
:10398000054606E0FFF7DEF8401B022801D90320B8
:10399000F6E67748406A00F002000028F2D120786D
:1039A00000F00400042873D100277148C06900F0BA
:1039B000805070B900BF6E48C06940F080506C49BB
:1039C000C8610846C06900F08050009000BF00BF89
:1039D00001276A48006800F48070B0B96748006841
:1039E00040F4807065490860FFF7ACF8054606E0D2
:1039F000FFF7A8F8401B642801D90320C0E65F4800
:103A0000006800F480700028F2D000BFE068012850
:103A100006D15748006A40F001005549086227E086
:103A2000E06858B95248006A20F001005049086225
:103A30000846006A20F00400086219E0E0680528E2
:103A40000BD14B48006A40F004004949086208461F
:103A5000006A40F0010008620AE04548006A20F070
:103A60000100434908620846006A20F00400086229
:103A700000BFE068A0B1FFF765F8054609E0FFF771
:103A800061F8401B41F28831884202D9032077E671
:103A900022E03748006A00F002000028EFD012E070
:103AA000FFF750F8054608E0FFF74CF8401B41F2DD
:103AB0008831884201D9032062E62D48006A00F06F
:103AC00002000028F0D1012F05D12948C06920F05B
:103AD00080502749C86100BFE069C8B324484068E6
:103AE00000F00C00082860D0E069022848D10020CE
:103AF00020490866FFF726F8054606E0FFF722F89A
:103B0000401B022801D903203AE61948006800F05A
:103B100000700028F2D1206AB0F5803F07D1144828
:103B2000406820F40030A168084311494860D4E996
:103B3000080108430E49496821F4741108430C49EF
:103B4000486001200B490866FEF7FCFF054607E0C8
:103B50003DE0FEF7F7FF401B022801D903200FE6E6
:103B60000348006800F000700028F2D02FE0000049
:103B700000100240000042428004424200700040B7
:103B8000002014490866FEF7DDFF054606E0FEF753
:103B9000D9FF401B022801D90320F1E50E48006837
:103BA00000F000700028F2D111E0E069012800D196
:103BB000E6E50948466806F48031206A814204D16E
:103BC00006F47011606A814201D00120D8E500201E
:103BD000D6E50000000042420010024010B5044645
:103BE0000CB9012010BD606A38B96068B0F5827FF9
:103BF00000D105E00021E16102E000212161616165
:103C00000021A16294F8510028B9002084F85000E6
:103C1000204600F043F8022084F851002068006834
:103C200020F0400021680860A08800F4827021899B
:103C300001F404410843A18901F400610843217C97
:103C400001F002010843217D01F001010843218BAD
:103C500001F400710843217F01F03801084320215D
:103C6000095D01F080010843218D01F400510843F2
:103C7000216808600421A06901EA104021684860B9
:103C80002068C06920F400602168C8610020606578
:103C9000012084F851000020A4E7000010B586B090
:103CA0000446002002900390049005901949206872
:103CB00088422DD100BF1848806940F480501649D1
:103CC00088610846806900F48050019000BF00BF01
:103CD00000BF0846806940F004008861084680699A
:103CE00000F00400019000BF00BFA020029002205D
:103CF00003900320059002A90848FEF783FD4020A9
:103D0000029000200390049002A90448FEF77AFD77
:103D100006B010BD00300140001002400008014014
:103D20002DE9FF5F0446884691461D460E9E012000
:103D300002900020019000BF94F85000012803D1A8
:103D4000022004B0BDE8F09F012084F8500000BFBD
:103D5000FEF7F8FE074694F851B060680390AA4653
:103D6000BBF1010F0BD00398B0F5827F04D1A0689E
:103D700010B9BBF1040F02D002200190E9E0B8F1C4
:103D8000000F03D0B9F1000F00D015B90120019048
:103D9000DFE094F85100042802D0052084F8510097
:103DA00000206065C4F83890E587A587C4F83080A6
:103DB000E586A586206460642068006800F0400005
:103DC000402805D02068006840F040002168086065
:103DD000E068B0F5006F4DD1606810B1BAF1010F25
:103DE00009D1206B00882168C860206B801C20638B
:103DF000E08E401EE08636E02068806800F0020019
:103E0000022810D1E08E70B1029801280BD1206BEE
:103E100000882168C860206B801C2063E08E401EF3
:103E2000E086002002902068806800F0010068B100
:103E3000E08F58B12068C068A16B0880A06B801C1F
:103E4000A063E08F401EE08701200290FEF77AFE1B
:103E5000C01BB04207D3701C28B103200190012081
:103E600084F8510075E0E08E0028C5D1E08F00286D
:103E7000C2D14DE0606810B1BAF1010F09D1206BD9
:103E8000007821680873206B401C2063E08E401E80
:103E9000E08637E02068806800F00200022810D138
:103EA000E08E70B1029801280BD1206B0078216858
:103EB0000873206B401C2063E08E401EE0860020CB
:103EC00002902068806800F0010068B1E08F58B16E
:103ED0002068C068A16B0870A06B401CA063E08FD5
:103EE000401EE08701200290FEF72CFEC01BB0426E
:103EF00001D3701C00B92EB903200190012084F871
:103F0000510026E0E08E0028C4D1E08F0028C1D106
:103F10003A463146204601F03EFC20B10120019096
:103F20002020606515E0A06850B900BF0020009017
:103F30002068C068009020688068009000BF00BFC3
:103F4000606D10B10120019002E0012084F8510061
:103F500000BF00BF002084F8500000BF0198F0E6C9
:103F600070B504462546681EB0F1807F01D301205C
:103F70000FE0681E4FF0E02148610F214FF0FF3045
:103F800001F074FF00204FF0E021886107200861F4
:103F9000002070BD10B50346002200BF93F83C001E
:103FA000012801D1022010BD012083F83C0000BF90
:103FB00022F0FF00CC6840EA040222F440708C68D2
:103FC00040EA040222F480604C6840EA040222F4D1
:103FD00000600C6840EA040222F480500C6940EA58
:103FE000040222F400504C6940EA040222F48040AA
:103FF000CC6940EA04021868426400BF002083F8DC
:104000003C0000BF00BFCEE730B502460B4600BF04
:1040100092F83C00012801D1022030BD012082F835
:104020003C0000BF022082F83D0010684468106820
:10403000816824F070041868044310684460104DCF
:104040001068A8420BD01068B0F1804F07D00D4D1A
:104050001068A84203D00C4D1068A84205D121F089
:1040600080015868014310688160012082F83D009A
:1040700000BF002082F83C0000BF00BFCDE7000079
:10408000002C0140000400400008004010B5044628
:104090000CB9012010BD94F83D0028B9002084F827
:1040A0003C00204600F026F8022084F83D00211D47
:1040B000206801F08DFC012084F8460000BF84F8E0
:1040C0003E0001213F20015540200155412001556E
:1040D00000BF00BF012084F8420043200155442066
:1040E00001554520015500BF012084F83D00002006
:1040F000D0E7000008B5244A016891420DD100BF05
:104100002249896941F40061204A91611146896917
:1041100001F40061009100BF35E00168B1F1804F0A
:104120000DD100BF1949C96941F00101174AD16198
:104130001146C96901F00101009100BF23E0144A52
:10414000016891420DD100BF1049C96941F00201D7
:104150000E4AD1611146C96901F00201009100BF08
:1041600011E00C4A016891420DD100BF0749C969AD
:1041700041F00401054AD1611146C96901F0040109
:10418000009100BF00BF08BD002C0140001002409C
:1041900000040040000800402DE9F04104460D46AF
:1041A000002700BF94F83C00012802D10220BDE89E
:1041B000F081012084F83C0000BF022084F83D001B
:1041C0002068866826F0770626F47F462068866099
:1041D0002868502833D00CDC202850D004DC00287C
:1041E0004BD0102851D149E0302849D040284CD13B
:1041F00039E060282DD0702807D0B0F5805F03D05B
:10420000B0F5005F41D10DE041E0D5E902136A68E5
:10421000206801F028FC2068866846F07706206850
:10422000866034E0D5E902136A68206801F01BFC5F
:104230002068806840F480402168886027E0EA6850
:104240006968206801F0E0FC5021206801F016FC4C
:104250001DE0EA686968206801F0E9FC60212068D7
:1042600001F00CFC13E0EA686968206801F0CCFCFE
:104270004021206801F002FC09E000BF00BF00BF40
:104280002968206801F0FAFB01E0012700BF00BFA8
:10429000012084F83D0000BF002084F83C0000BFEE
:1042A000384684E710B586B004460020029003909B
:1042B000049005903C492068884217D100BF3B48D4
:1042C000806940F00400394988610846806900F03F
:1042D0000400019000BF00BF081502900220039067
:1042E000059002A93248FEF78DFA5BE02068B0F134
:1042F000804F16D100BF2D48806940F004002B4943
:1043000088610846806900F00400019000BF00BF8A
:10431000022002900390059002A92548FEF772FA48
:1043200040E024492068884221D100BF1F488069AD
:1043300040F008001D4988610846806900F00800C7
:10434000019000BF00BF1020029002200390059052
:1043500002A91948FEF756FA00BF1849486820F428
:10436000406040F0E06040F4006048601AE01449AA
:104370002068884216D100BF0C48806940F00800D0
:104380000A4988610846806900F00800019000BF72
:1043900000BF4815029002200390059002A906482C
:1043A000FEF730FA06B010BD002C014000100240AC
:1043B0000008014000040040000C014000000140E2
:1043C000000800402DE9F04104460D46164600273E
:1043D00000BF94F83C00012802D10220BDE8F08122
:1043E000012084F83C0000BF36B1042E1BD0082EFB
:1043F00031D00C2E5ED145E02946206801F048FB03
:104400002068806940F00800216888612068806920
:1044100020F00400216888612068806929690843C8
:104420002168886148E02946206801F061FB206826
:10443000806940F40060216888612068806920F408
:1044400080602168886120688069296940EA0120CC
:104450002168886130E02946206801F07DFB2068F2
:10446000C06940F008002168C8612068C06920F078
:1044700004002168C8612068C0692969084321686F
:10448000C86119E02946206801F09AFB2068C069DC
:1044900040F400602168C8612068C06920F4806031
:1044A0002168C8612068C069296940EA0120216843
:1044B000C86101E0012700BF00BF00BF002084F8F1
:1044C0003C0000BF384689E710B504460CB901200E
:1044D00010BD94F83D0028B9002084F83C00204627
:1044E00000F025F8022084F83D00211D206801F02D
:1044F0006FFA012084F8460000BF84F83E000121D5
:104500003F200155402001554120015500BF00BF0B
:10451000012084F8420043200155442001554520E4
:10452000015500BF012084F83D000020D0E770470E
:1045300070B504460D4615B994F83E000BE0042D05
:1045400002D13F20005D06E0082D02D14020005D31
:1045500001E04120005D012801D0012070BD1DB99E
:10456000022084F83E000EE0042D03D102213F20FA
:10457000015508E0082D03D102214020015502E039
:1045800002214120015501222946206801F05AFAF2
:1045900019492068884201D1012000E0002028B19B
:1045A0002068406C40F4004021684864124920684B
:1045B00088420BD02068B0F1804F07D00F492068A7
:1045C000884203D00E49206888420CD12068806858
:1045D00000F00706062E0CD02068006840F00100AD
:1045E0002168086005E02068006840F0010021684B
:1045F00008600020B2E70000002C014000040040E9
:104600000008004010B504460CB9012010BDA06997
:1046100000B100E000BF94F8410028B9002084F800
:104620004000204600F02AF8242084F84100206849
:10463000C06820F400502168C860204601F00CFBDF
:104640002068006920F49040216808612068406972
:1046500020F02A00216848612068C06840F40050BA
:104660002168C86000206064202084F8410084F83C
:1046700042000020606300BFC8E7000010B586B0AC
:104680000446002002900390049005901949206888
:1046900088422DD100BF1848C06940F40030164947
:1046A000C8610846C06900F40030019000BF00BF37
:1046B00000BF0846806940F00400886108468069B0
:1046C00000F00400019000BF00BF0420029002200F
:1046D00003900320059002A90848FEF793F80820EC
:1046E000029000200390049002A90448FEF78AF883
:1046F00006B010BD00440040001002400008014018
:104700002DE9F84F04460E46174699464FF0000A29
:1047100094F8410020284AD106B117B90120BDE81C
:10472000F88F00206064212084F84100FEF70AFA27
:104730008246A784E784A068B0F5805F04D1206931
:1047400010B90025B04602E035464FF000081BE0E6
:104750005346002280212046CDF8009001F0FAFA5D
:1047600008B10320DBE745B9B8F80000C0F3080042
:104770002168486008F1020803E028782168486051
:104780006D1CE08C401EE084E08C0028E0D1534694
:10479000002240212046CDF8009001F0DBFA08B15C
:1047A0000320BCE7202084F841000020B7E7022066
:1047B000B5E700BFFEE7014608684069C0F3802006
:1047C000B0B16FF480600A68506100200863202057
:1047D00081F83D00002081F83E00086C40F00400A4
:1047E000086400BF002081F83C0000BF0120704732
:1047F0000020FCE72DE9F84304460F46154699468C
:10480000DDE908862068006840F48060216808605F
:104810002068006840F480702168086043460022E8
:104820004FF001112046009600F037F960B1206882
:10483000006800F48070B0F5807F02D14FF4007002
:1048400020640320BDE8F88307F0FE0021680861BA
:10485000334642463E49204600F07EF908B1012029
:10486000F0E700BF002000902068406900902068B9
:104870008069009000BF00BF32464146204600F0EC
:104880002DFA50B1206C042805D12068006840F44E
:104890000070216808600120D4E7B9F1010F03D14D
:1048A000E8B22168086117E0C5F3072021680861B4
:1048B00032464146204600F011FA50B1206C0428DF
:1048C00005D12068006840F400702168086001206C
:1048D000B8E7E8B22168086132464146204600F058
:1048E000FDF950B1206C042805D12068006840F41F
:1048F0000070216808600120A4E72068006840F487
:10490000807021680860434600224FF00111204664
:10491000009600F0C2F858B12068006800F480707A
:10492000B0F5807F02D14FF400702064032089E746
:10493000F8B240F00100216808613346424604495C
:10494000204600F009F908B101207BE7002079E753
:10495000020001002DE9F8430446884615469946B1
:10496000DDE908672068006840F48070216808600D
:10497000334600224FF001112046009700F08DF8D9
:1049800060B12068006800F48070B0F5807F02D1CB
:104990004FF4007020640320BDE8F88308F0FE00A7
:1049A000216808613B4632462149204600F0D4F890
:1049B00008B10120F0E700BF0020009020684069A6
:1049C000009020688069009000BF00BF3A463146E1
:1049D000204600F083F950B1206C042805D12068EE
:1049E000006840F40070216808600120D4E7B9F144
:1049F000010F03D1E8B22168086117E0C5F3072071
:104A0000216808613A463146204600F067F950B106
:104A1000206C042805D12068006840F400702168EB
:104A200008600120B8E7E8B2216808610020B3E718
:104A30000200010070B504460D46164625E02046EA
:104A4000FFF7B9FE08B1012070BD681CE8B1FEF7A0
:104A500079F8801BA84200D8BDB920684069C0F32E
:104A6000800090B900202063202084F83D000020C1
:104A700084F83E00206C40F02000206400BF00203D
:104A800084F83C0000BF0120DEE720684069C0F3E5
:104A900080000028D3D00020D6E72DE9F04104465D
:104AA0000D4617461E46DDF8188038E0701CA8B386
:104AB000FEF748F8A0EB0800B04200D876BBC5F37B
:104AC000074001280AD120684069A9B20840A9B26C
:104AD000884201D101200BE0002009E020688069B4
:104AE000A9B20840A9B2884201D1012000E000200B
:104AF000B84214D100202063202084F83D0000201B
:104B000084F83E00206C40F02000206400BF0020AC
:104B100084F83C0000BF0120BDE8F081FFE7C5F349
:104B2000074001280AD120684069A9B20840A9B20B
:104B3000884201D101200BE0002009E02068806953
:104B4000A9B20840A9B2884201D1012000E00020AA
:104B5000B842ABD00020DFE72DE9F04104460D4616
:104B600016461F4658E020684069C0F38020E8B12F
:104B70002068006840F40070216808606FF480606D
:104B80002168486100202063202084F83D00002037
:104B900084F83E00206C40F00400206400BF002038
:104BA00084F83C0000BF0120BDE8F081701C90B388
:104BB000FDF7C8FFC01BB04200D866BBC5F3074075
:104BC00001280AD120684069A9B20840A9B28842E8
:104BD00001D101200BE0002009E020688069A9B222
:104BE0000840A9B2884201D1012000E0002090B91C
:104BF00000202063202084F83D00002084F83E003F
:104C0000206C40F02000206400BF002084F83C00AD
:104C100000BF0120C8E7FFE7C5F3074001280AD11C
:104C200020684069A9B20840A9B2884201D1012098
:104C30000BE0002009E020688069A9B20840A9B211
:104C4000884201D1012000E0002000288BD0002004
:104C5000AAE770B504460D46164637E0206840695D
:104C6000C0F30010A0B16FF010002168486100206F
:104C70002063202084F83D00002084F83E00206C52
:104C8000206400BF002084F83C0000BF012070BDFC
:104C9000FDF758FF801BA84200D8BDB920684069C5
:104CA000C0F3801090B900202063202084F83D00DC
:104CB000002084F83E00206C40F02000206400BFFB
:104CC000002084F83C0000BF0120E0E72068406934
:104CD000C0F380100028C1D00020D8E770B504468A
:104CE0000D46164625E02046FFF765FD08B1012078
:104CF00070BD681CE8B1FDF725FF801BA84200D8F5
:104D0000BDB920684069C0F3C01090B9002020638D
:104D1000202084F83D00002084F83E00206C40F004
:104D20002000206400BF002084F83C0000BF012068
:104D3000DEE720684069C0F3C0100028D3D000200F
:104D4000D6E770B504460D46012229462046FDF7F8
:104D5000F3FE70BD70B504460D460022294620467C
:104D6000FDF7EAFE70BD70B504460D4629462046A3
:104D7000FDF7D8FE70BD7CB506460C4615460622EA
:104D800069463B2000F086F89DF801009DF8001070
:104D900040EA012000B230809DF803009DF8021027
:104DA00040EA012000B220809DF805009DF8041023
:104DB00040EA012000B2288000207CBD7CB5064678
:104DC0000C46154606226946432000F063F89DF81C
:104DD00001009DF8001040EA012000B230809DF8EB
:104DE00003009DF8021040EA012000B220809DF8E7
:104DF00005009DF8041040EA012000B22880002040
:104E00007CBD08B50020009080216B2000F056F892
:104E10006420FDF7E3FC00216B2000F04FF8032035
:104E200000F06AF8002000F05FF80021382000F060
:104E300045F80021232000F041F800216A2000F00D
:104E40003DF86946752000F011F89DF800006828CB
:104E50000BD101216B2000F031F84FF4FA7000F013
:104E600070F800216C2000F029F808BD3EB504461A
:104E70000D464FF0FF3001210B462246CDE900518F
:104E80000290D0210248FDF74BFF00203EBD0000FC
:104E9000A8010020FEB504460D4616464FF0FF302F
:104EA00001232246D021CDE9005602900248FDF7A9
:104EB00037FF0020FEBD0000A801002013B584B01C
:104EC00004464FF0FF30012105AA0B46CDE9002131
:104ED00002902246D0210348FEF7D4F8002006B005
:104EE00010BD0000A801002010B50446E006010E28
:104EF0001C20FFF7E3FF10BD10B50446E006010ECD
:104F00001B20FFF7DBFF10BD70B504460025BC2C4D
:104F100001DB012510E0622C01DB02250CE02A2CCC
:104F200001DB032508E0142C01DB042504E00A2C36
:104F300001DB052500E0062529461A20FFF7BEFF04
:104F400070BD70B504460025B4F57A7F02DD4FF4DC
:104F50007A7402E0042C00DA04244FF47A7090FB97
:104F6000F4F0401EC5B229461920FFF7A7FF2646D8
:104F700004EBD671C1F34F00FFF7C6FF70BD000010
:104F80000EB500200090019002901248124908606E
:104F900000211148816001210173002101754FF446
:104FA0006021C16100200C49486001210A4801616B
:104FB000FDF718FA08B1FCF79FFD092000900120C9
:104FC0000190029069460448FDF75CF908B1FCF7CE
:104FD00093FD0EBD002401403401002008B500BF40
:104FE0000A48406940F001000849486108464069A4
:104FF00000F00100009000BF00BF002206210B203E
:10500000FEF7ACF90B20FEF799F908BD001002403D
:1050100000B585B00020019002900390049000BF7D
:105020003348806940F01000314988610846806942
:1050300000F01000009000BF00BF00BF084680696C
:1050400040F0200088610846806900F02000009050
:1050500000BF00BF00BF0846806940F004008861BF
:105060000846806900F00400009000BF00BF00BF48
:105070000846806940F0080088610846806900F0B1
:105080000800009000BF00BF012241F6101119482E
:10509000FDF752FD01224FF440411748FDF74CFD4A
:1050A00041F610100190012002900020039003208F
:1050B000049001A90F48FDF7A5FB4FF44040019073
:1050C00001200290002003900320049001A90A48C7
:1050D000FDF798FB4FF40070019000200290012032
:1050E000039001A90348FDF78DFB05B000BD00004A
:1050F0000010024000080140000C014010B50B48B0
:105100000B4908600B484860002109488160C16074
:105110004FF480410161002141618161C1610162FF
:10512000FDF716FD08B1FCF7E7FC10BD0054004088
:10513000A8010020801A060010B50E480E4908602C
:105140004FF48270486000210B488160C1600161AA
:1051500041614FF4007181611021C1610021016240
:10516000416281620A21C162FEF738FD08B1FCF795
:10517000C3FC10BD00300140FC01002000B595B01B
:10518000002011901290139014900F9010901C21F9
:1051900008A8FBF72AF820216846FBF726F82B48D9
:1051A0002B4908600320486000212948816040F2B3
:1051B000E731C1600021016141618161FEF766FF55
:1051C00008B1FCF799FC4FF48050119011A92048C8
:1051D000FEF7E2FF08B1FCF78FFC1D48FFF774F9FA
:1051E00008B1FCF789FC00200F9010900FA9184817
:1051F000FEF70AFF08B1FCF77FFC60200890002052
:1052000009900A900B900C900D900E90082208A91E
:105210000F48FFF7D7F808B1FCF76EFC00200090AC
:1052200001900290039004904FF4005005900020EC
:10523000079069460648FEF7ADFE08B1FCF75CFC36
:105240000348FFF72FF815B000BD0000002C014007
:105250005402002000B58DB0002009900A900B90F8
:105260000C90079008901C216846FAF7BEFF4FF09B
:1052700080401F4908600320486000211C4881606D
:1052800040F2E731C160002101618161FEF7FEFE5D
:1052900008B1FCF731FC4FF48050099009A914487B
:1052A000FEF77AFF08B1FCF727FC1148FFF70CF96D
:1052B00008B1FCF721FC00200790089007A90C48D2
:1052C000FEF7A2FE08B1FCF717FC6020009000205A
:1052D000019002900490042269460548FFF772F895
:1052E00008B1FCF709FC0248FEF7DCFF0DB000BD79
:1052F0009C02002000B58DB0002009900A900B9010
:105300000C90079008901C216846FAF76EFF204821
:10531000204908600320486000211E48816040F257
:10532000E731C160002101618161FEF7AFFE08B184
:10533000FCF7E2FB4FF48050099009A91548FEF7ED
:105340002BFF08B1FCF7D8FB1248FFF7BDF808B1F6
:10535000FCF7D2FB00200790089007A90D48FEF744
:1053600053FE08B1FCF7C8FB6020009000200190BC
:1053700002900490002269460648FFF723F808B11E
:10538000FCF7BAFB0348FEF78DFF0DB000BD00002F
:1053900000040040E402002000B58DB00020099018
:1053A0000A900B900C90079008901C216846FAF721
:1053B0001CFF2048204908600320486000211E4847
:1053C000816040F2E731C160002101618161FEF737
:1053D0005DFE08B1FCF790FB4FF48050099009A9DD
:1053E0001548FEF7D9FE08B1FCF786FB1248FFF717
:1053F0006BF808B1FCF780FB00200790089007A924
:105400000D48FEF701FE08B1FCF776FB6020009026
:1054100000200190029004900C2269460648FEF795
:10542000D1FF08B1FCF768FB0348FEF73BFF0DB066
:1054300000BD0000000800402C03002010B50B4800
:105440000B4908604FF4E130486000210848816052
:10545000C16001610C21416100218161C161FFF7DF
:10546000D1F808B1FCF748FB10BD00000044004033
:105470007403002000BFFEE700BFFEE71FB513A1C5
:1054800003C9CDE90201002000900190002405220B
:1054900002A9302000F0BCF805226946102000F077
:1054A00019F8002009E002A9095C1DF800209142CA
:1054B00001D1611CCCB2411CC8B20528F3DB052C1C
:1054C00002D1002004B010BD0120FBE7A1A1A1A1E1
:1054D000A10000002DE9F04107460C4615460022C8
:1054E00010210C48FDF728FB3846FCF7F5FA00269A
:1054F00006E00020FCF7F0FA04F8010B701CC6B2BD
:10550000AE42F6DB012210210248FDF715FB002018
:10551000BDE8F0810008014010B500224FF4807111
:105520001248FDF709FB052211492A2000F070F806
:105530000121212000F090F80121222000F08CF8B8
:105540002821252000F088F81C21312000F084F863
:105550000F21262000F080F80F21202000F07CF899
:10556000012211020148FDF7E7FA10BD00080140D1
:105570007500002070B5044600250022102108485F
:10558000FDF7DAFA2046FCF7A7FA0020FCF7A4FAA8
:105590000546012210210248FDF7CEFA284670BDCB
:1055A0000008014070B5054600260720FFF7E2FF1E
:1055B00006463146272000F04FF806F04000C0B103
:1055C0001C2229466120FFF785FFFF21E22000F021
:1055D00043F8002008490880002406E02A5D21469F
:1055E00006A000F003FC601CC4B21C2CF6DB0020FB
:1055F00070BD0120FCE700007A0000207265636541
:105600006976655B25645D3D253032780D0A0000C2
:105610002DE9F04107460C4615464FF000080022E0
:1056200010210C48FDF788FA3846FCF755FA8046F9
:10563000002605E014F8010BFCF74EFA701CC6B208
:10564000AE42F7DB012210210248FDF775FA404611
:10565000BDE8F0810008014070B505460C46002603
:10566000002210210848FDF767FA2846FCF734FAB3
:1056700006462046FCF730FA012210210248FDF7C9
:105680005BFA304670BD0000000801402DE9F05F74
:1056900004460E46A1692068FAF704FE0546314625
:1056A0002846FAF705FE8046A168FAF7A9FDA06032
:1056B00061682846FAF7F6FD80463146FAF72AFE79
:1056C000074660693946FAF7F3FD8146A16820690B
:1056D000FAF7EEFD8246E0682946FAF7E9FD8346CF
:1056E0005146FAF78DFD80464946FAF789FDE0619B
:1056F0006560BDE8F09F00002DE9F05F04464FF0C3
:105700007F594FF07C512046FAF7D2FD824625465C
:105710002E460C48A0EB6606354629465046FAF759
:10572000C7FD83462946FAF7C3FD80464946FAF786
:10573000BCFD07462946FAF7BBFD05462846BDE8ED
:10574000F09F0000DF59375F08B508490968C908AC
:105750004FF47A72B1FBF2F14143009100BF00BFF8
:1057600000994A1E00920029F9D108BD0C000020C2
:1057700010B5024600200BE0002352F82040636081
:1057800052F82040A36052F82040E361431CD8B295
:105790008842F1DB10BDF8B504460D4616462B468F
:1057A000002280212046009600F00AF828B1606DA2
:1057B00040F0200060650320F8BD0020FCE70000F9
:1057C0002DE9F84F04460D4690461E46DDF8289018
:1057D000FDF7B8F9A0EB0900371AFDF7B3F98246D7
:1057E0002C480068C0F3CB307843009045E0701C33
:1057F000002842D0FDF7A6F9A0EB0A00B84200D27B
:10580000A7BB2068406820F0E0002168486060681D
:10581000B0F5827F0DD1A068B0F5004F03D0A0682D
:10582000B0F5806F05D12068006820F04000216845
:105830000860A06AB0F5005F0DD100BF2068006865
:1058400020F40050216808602068006840F400508F
:105850002168086000BF012084F8510000BF0020CB
:1058600084F8500000BF0320BDE8F88FFFE70098E0
:1058700000B900270098401E0090206880682840EA
:10588000A84201D1012000E000204045AFD1002016
:10589000EAE700000C0000201CB5044601F0C0FD42
:1058A0001248042100238A01CDE9001010A11448F8
:1058B00001F016FF1348032100234FF48072CDE955
:1058C000001011A1144801F00BFF1448022100231D
:1058D000CA01CDE9001012A1154801F001FF002016
:1058E00001F0F2FD01F0AEFD1CBD0000BC00002087
:1058F0004170705F5461736B5F324D530000000064
:10590000BD190008C00000204170705F5461736BC6
:105910005F344D5300000000FD190008C400002052
:105920004170705F5461736B5F35304D5300000000
:105930002D1A000810B5FDF791FC01F03FFF01287A
:1059400001D001F0B3FE10BD00B593B0282109A825
:10595000FAF74BFC142104A8FAF747FC002000904A
:105960000190029003900120099000040A90002009
:105970000B9001200D9002201090C10311914FF463
:10598000E011129109A8FDF7F7FE08B1FCF7B4F891
:105990000F20049002200590002006904FF48060B4
:1059A000079000200890022104A8FDF7C1FD08B16E
:1059B000FCF7A2F802200090800302906846FDF7F1
:1059C0001FFD08B1FCF798F813B000BD7047000048
:1059D00010B50268184B984208D0B0F1804F05D03E
:1059E000164B984202D0164B984203D122F0700217
:1059F0004B681A43104B984208D0B0F1804F05D045
:105A00000E4B984202D00E4B984203D122F44072C2
:105A1000CB681A4322F080034C6943EA0402026017
:105A20008B68C3620B688362034B984201D10B6998
:105A300003630123436110BD002C014000040040BA
:105A40000008004030B501F01F05012404FA05F3F9
:105A5000046A9C430462046A01F01F0502FA05F51A
:105A60002C43046230BD30B50C46816821F47F417F
:105A700042EA032525432943816030BD0A468168F7
:105A800021F0700142F00703194381607047000064
:105A900030B5026A056A25F001050562436884692C
:105AA00024F0700424F003040D682C4322F0020259
:105AB0008D682A430D4DA84206D100BF22F008028E
:105AC000CD682A4322F00402084DA84207D123F4EE
:105AD000807323F400734D692B438D692B4343601E
